{
    "contractName": "ecRecover",
    "abi": [
        {
            "anonymous": false,
            "inputs": [
                {
                    "indexed": true,
                    "internalType": "address",
                    "name": "previousOwner",
                    "type": "address"
                },
                {
                    "indexed": true,
                    "internalType": "address",
                    "name": "newOwner",
                    "type": "address"
                }
            ],
            "name": "OwnershipTransferred",
            "type": "event"
        },
        {
            "inputs": [],
            "name": "owner",
            "outputs": [
                {
                    "internalType": "address",
                    "name": "",
                    "type": "address"
                }
            ],
            "stateMutability": "view",
            "type": "function"
        },
        {
            "inputs": [
                {
                    "internalType": "bytes32",
                    "name": "_ethSignedMessageHash",
                    "type": "bytes32"
                },
                {
                    "internalType": "bytes",
                    "name": "_signature",
                    "type": "bytes"
                }
            ],
            "name": "recover",
            "outputs": [
                {
                    "internalType": "address",
                    "name": "addr",
                    "type": "address"
                }
            ],
            "stateMutability": "view",
            "type": "function"
        },
        {
            "inputs": [],
            "name": "renounceOwnership",
            "outputs": [],
            "stateMutability": "nonpayable",
            "type": "function"
        },
        {
            "inputs": [
                {
                    "internalType": "address",
                    "name": "signer_",
                    "type": "address"
                }
            ],
            "name": "setSigner",
            "outputs": [],
            "stateMutability": "nonpayable",
            "type": "function"
        },
        {
            "inputs": [
                {
                    "internalType": "bytes",
                    "name": "sig",
                    "type": "bytes"
                }
            ],
            "name": "splitSignature",
            "outputs": [
                {
                    "internalType": "bytes32",
                    "name": "r",
                    "type": "bytes32"
                },
                {
                    "internalType": "bytes32",
                    "name": "s",
                    "type": "bytes32"
                },
                {
                    "internalType": "uint8",
                    "name": "v",
                    "type": "uint8"
                }
            ],
            "stateMutability": "pure",
            "type": "function"
        },
        {
            "inputs": [
                {
                    "internalType": "address",
                    "name": "newOwner",
                    "type": "address"
                }
            ],
            "name": "transferOwnership",
            "outputs": [],
            "stateMutability": "nonpayable",
            "type": "function"
        }
    ],
    "bytecode": "608060405234801561001057600080fd5b5061001a3361001f565b61006f565b600080546001600160a01b038381166001600160a01b0319831681178455604051919092169283917f8be0079c531659141344cd1fd0a4f28419497f9722a3daafe3b4186f6b6457e09190a35050565b6104ef8061007e6000396000f3fe608060405234801561001057600080fd5b50600436106100625760003560e01c806319045a25146100675780636c19e78314610097578063715018a6146100ac5780638da5cb5b146100b4578063a7bb5803146100c5578063f2fde38b146100f6575b600080fd5b61007a610075366004610405565b610109565b6040516001600160a01b0390911681526020015b60405180910390f35b6100aa6100a536600461044c565b610188565b005b6100aa6101b2565b6000546001600160a01b031661007a565b6100d86100d336600461047c565b6101c6565b60408051938452602084019290925260ff169082015260600161008e565b6100aa61010436600461044c565b61023f565b600080600080610118856101c6565b6040805160008152602081018083528b905260ff8316918101919091526060810184905260808101839052929550909350915060019060a0016020604051602081039080840390855afa158015610173573d6000803e3d6000fd5b5050604051601f190151979650505050505050565b6101906102b8565b600180546001600160a01b0319166001600160a01b0392909216919091179055565b6101ba6102b8565b6101c46000610312565b565b600080600083516041146102215760405162461bcd60e51b815260206004820152601860248201527f696e76616c6964207369676e6174757265206c656e677468000000000000000060448201526064015b60405180910390fd5b50505060208101516040820151606090920151909260009190911a90565b6102476102b8565b6001600160a01b0381166102ac5760405162461bcd60e51b815260206004820152602660248201527f4f776e61626c653a206e6577206f776e657220697320746865207a65726f206160448201526564647265737360d01b6064820152608401610218565b6102b581610312565b50565b6000546001600160a01b031633146101c45760405162461bcd60e51b815260206004820181905260248201527f4f776e61626c653a2063616c6c6572206973206e6f7420746865206f776e65726044820152606401610218565b600080546001600160a01b038381166001600160a01b0319831681178455604051919092169283917f8be0079c531659141344cd1fd0a4f28419497f9722a3daafe3b4186f6b6457e09190a35050565b634e487b7160e01b600052604160045260246000fd5b600082601f83011261038957600080fd5b813567ffffffffffffffff808211156103a4576103a4610362565b604051601f8301601f19908116603f011681019082821181831017156103cc576103cc610362565b816040528381528660208588010111156103e557600080fd5b836020870160208301376000602085830101528094505050505092915050565b6000806040838503121561041857600080fd5b82359150602083013567ffffffffffffffff81111561043657600080fd5b61044285828601610378565b9150509250929050565b60006020828403121561045e57600080fd5b81356001600160a01b038116811461047557600080fd5b9392505050565b60006020828403121561048e57600080fd5b813567ffffffffffffffff8111156104a557600080fd5b6104b184828501610378565b94935050505056fea26469706673582212205f39fa647dd0cdc9978bba070db2a1460c1262a607ba41da06518fac92f2157764736f6c63430008130033",
    "sourcePath": "/Users/jasonwang/Desktop/itm_objection/contracts/ecRecover.sol",
    "compiler": {
        "name": "solc",
        "version": "0.8.19+commit.7dd6d404"
    },
    "functionHashes": {
        "owner()": "8da5cb5b",
        "recover(bytes32,bytes)": "19045a25",
        "renounceOwnership()": "715018a6",
        "setSigner(address)": "6c19e783",
        "splitSignature(bytes)": "a7bb5803",
        "transferOwnership(address)": "f2fde38b"
    },
    "gasEstimates": {
        "creation": {
            "codeDepositCost": "252600",
            "executionCost": "26135",
            "totalCost": "278735"
        },
        "external": {
            "owner()": "2364",
            "recover(bytes32,bytes)": "infinite",
            "renounceOwnership()": "infinite",
            "setSigner(address)": "26700",
            "splitSignature(bytes)": "infinite",
            "transferOwnership(address)": "28386"
        }
    }
}